{
  "_format": "hh-sol-artifact-1",
  "contractName": "AccountFactory",
  "sourceName": "contracts/Account.sol",
  "abi": [
    {
      "inputs": [
        {
          "internalType": "address",
          "name": "owner",
          "type": "address"
        }
      ],
      "name": "createAccount",
      "outputs": [
        {
          "internalType": "address",
          "name": "",
          "type": "address"
        }
      ],
      "stateMutability": "nonpayable",
      "type": "function"
    }
  ],
  "bytecode": "0x608060405234801561001057600080fd5b50610871806100206000396000f3fe608060405234801561001057600080fd5b506004361061002b5760003560e01c80639859387b14610030575b600080fd5b61004361003e366004610219565b61005f565b6040516001600160a01b03909116815260200160405180910390f35b6040516000906001600160a01b03831690829061007e6020820161020c565b601f1982820381018352601f9091011660408181526001600160a01b03871660208301520160408051601f19818403018152908290526100c19291602001610279565b604051602081830303815290604052905060006100e5838380519060200120610112565b90506001600160a01b0381163b156100ff57949350505050565b6101098383610128565b95945050505050565b600061011f8383306101e2565b90505b92915050565b600081516000036101805760405162461bcd60e51b815260206004820181905260248201527f437265617465323a2062797465636f6465206c656e677468206973207a65726f60448201526064015b60405180910390fd5b828251602084016000f590506001600160a01b0381166101225760405162461bcd60e51b815260206004820152601960248201527f437265617465323a204661696c6564206f6e206465706c6f79000000000000006044820152606401610177565b6000604051836040820152846020820152828152600b8101905060ff815360559020949350505050565b6105a58061029783390190565b60006020828403121561022b57600080fd5b81356001600160a01b038116811461024257600080fd5b9392505050565b6000815160005b8181101561026a5760208185018101518683015201610250565b50600093019283525090919050565b600061028e6102888386610249565b84610249565b94935050505056fe608060405234801561001057600080fd5b506040516105a53803806105a583398101604081905261002f91610054565b600180546001600160a01b0319166001600160a01b0392909216919091179055610084565b60006020828403121561006657600080fd5b81516001600160a01b038116811461007d57600080fd5b9392505050565b610512806100936000396000f3fe608060405234801561001057600080fd5b506004361061004c5760003560e01c806306661abd1461005157806319822f7c1461006d57806361461954146100805780638da5cb5b1461008a575b600080fd5b61005a60005481565b6040519081526020015b60405180910390f35b61005a61007b3660046103fd565b6100cf565b610088610187565b005b6001546100aa9073ffffffffffffffffffffffffffffffffffffffff1681565b60405173ffffffffffffffffffffffffffffffffffffffff9091168152602001610064565b7f19457468657265756d205369676e6564204d6573736167653a0a3332000000006000908152601c839052603c8120819061014c90610112610100880188610451565b8080601f01602080910402602001604051908101604052809392919081815260200183838082843760009201919091525061019d92505050565b60015490915073ffffffffffffffffffffffffffffffffffffffff80831691161461017857600161017b565b60005b60ff1695945050505050565b6000805490806101968361049f565b9190505550565b6000806000806101ad86866101c7565b9250925092506101bd8282610214565b5090949350505050565b600080600083516041036102015760208401516040850151606086015160001a6101f388828585610321565b95509550955050505061020d565b50508151600091506002905b9250925092565b6000826003811115610228576102286104c6565b03610231575050565b6001826003811115610245576102456104c6565b0361027c576040517ff645eedf00000000000000000000000000000000000000000000000000000000815260040160405180910390fd5b6002826003811115610290576102906104c6565b036102cf576040517ffce698f7000000000000000000000000000000000000000000000000000000008152600481018290526024015b60405180910390fd5b60038260038111156102e3576102e36104c6565b0361031d576040517fd78bce0c000000000000000000000000000000000000000000000000000000008152600481018290526024016102c6565b5050565b600080807f7fffffffffffffffffffffffffffffff5d576e7357a4501ddfe92f46681b20a084111561035c57506000915060039050826103f3565b604080516000808252602082018084528a905260ff891692820192909252606081018790526080810186905260019060a0016020604051602081039080840390855afa1580156103b0573d6000803e3d6000fd5b5050604051601f19015191505073ffffffffffffffffffffffffffffffffffffffff81166103e9575060009250600191508290506103f3565b9250600091508190505b9450945094915050565b60008060006060848603121561041257600080fd5b833567ffffffffffffffff81111561042957600080fd5b8401610120818703121561043c57600080fd5b95602085013595506040909401359392505050565b6000808335601e1984360301811261046857600080fd5b83018035915067ffffffffffffffff82111561048357600080fd5b60200191503681900382131561049857600080fd5b9250929050565b6000600182016104bf57634e487b7160e01b600052601160045260246000fd5b5060010190565b634e487b7160e01b600052602160045260246000fdfea264697066735822122094ceb5369264fe41a7c89e72667544faf3c1417f1b77d0fb0e18535d73690f4364736f6c63430008170033a26469706673582212207fe9aeef55e28e647a23833874e4bda3081fda9e661946cbdea7ebbbf6cfc5a364736f6c63430008170033",
  "linkReferences": {},
  "deployedLinkReferences": {}
}